S016000052616365436F6E646974696F6E582E7372656394
S11300000C9422010C944B010C944B010C944B0165
S11300100C944B010C944B010C944B010C944B012C
S11300200C944B010C944B010C944B010C944B011C
S11300300C944B010C944B010C9454050C944B01FF
S11300400C944B010C944B010C944B010C944B01FC
S11300500C944B010C944B010C944B010C944B01EC
S11300600C944B010C944B010C944B010C944B01DC
S11300700C944B010C944B010C944B010C944B01CC
S11300800C944B010C944B010C944B010C944B01BC
S11300900C944B010C944B010C944B010C944B01AC
S11300A00C944B010C944B010C944B010C944B019C
S11300B00C944B010C944B010C944B010C944B018C
S11300C00C944B010C944B010C944B010C944B017C
S11300D00C944B010C944B010C944B010C944B016C
S11300E00C944B010C944B010C944B010C944B015C
S11300F00C944B010C944B010C944B010C944B014C
S11301000C944B010C944B010C944B010C944B013B
S11301100C944B010C944B010C944B010C944B012B
S11301200C944B010C944B010C944B010C944B011B
S11301300C944B010C944B010C944B010C944B010B
S11301400C944B010C944B010C944B010C944B01FB
S11301500C944B010C944B010C944B010C944B01EB
S11301600C944B010C944B010C944B010C944B01DB
S11301700C944B010C944B010C944B010C944B01CB
S11301800C944B010C944B010C944B010C944B01BB
S11301900C944B010C944B010C944B010C944B01AB
S11301A00C944B010C944B010C944B010C944B019B
S11301B00C94DF150C944B010C944B010C944B01E3
S11301C00C944B010C944B010C944B010C944B017B
S11301D00C944B010C944B010C944B010C944B016B
S11301E00C944B010C944B010C944B010C944B015B
S11301F00C944B010C944B010C944B01C212C2128F
S1130200C2120F13F7120C13C212C2120F13F712F9
S11302100C94C2120C94A3140C943F030C94591420
S11302200C943B150C94EE140C940F130C947E1741
S11302300C9493130C940C130C94F7120C94061254
S11302400C94810A11241FBECFEFCDBFDFE3DEBFC4
S113025000E00CBFE5ECFCE28AEA90E48193E03034
S1130260F907E0F310E2A0E0B0E2EAE7FDE300E022
S11302700BBF02C007900D92A434B107D9F72CE24A
S1130280A4E4B0E201C01D92A53CB207E1F70E94CC
S113029087150C94BB1E0C9400000F93CF93DF932F
S11302A01F92CDB7DEB72FB72983F8941BBEFC018C
S11302B008ED04BF608389818FBF0F90DF91CF91D8
S11302C00F910895611102C090E001C090E2842B67
S11302D0892B8093520008956F71862B809355006B
S11302E00895E0E5F0E09081282F209592239083F3
S11302F0908189230895682B81E490E00E944D0148
S113030008950F931F93CF93C82F00E410E0F801D2
S11303106081687F682B80E490E00E944D01F801C1
S113032080818C23CF911F910F910895FC019081BE
S1130330907F692B60830895FC019181987F692BDC
S113034061830895FC0196819C7F692B66830895DF
S1130350000088ED84BF81E08093790008950E94B5
S1130360A8010895CF93DF9380E190E00E944F03AA
S1130370EC01009741F0FC0111921192119211923B
S1130380CF010E947603CE01DF91CF9108952F9281
S11303903F924F925F926F927F928F929F92AF9211
S11303A0BF92CF92DF92EF92FF920F931F93CF935E
S11303B0DF93EC014A015B01622E702E0E94DD0B7B
S11303C0288039804A805B8001110DC081E0B20130
S11303D0A101482159216A217B21452B462B472B1A
S11303E079F480E00DC081E0B201A10148215921D6
S11303F06A217B21481559056A057B0509F080E0CF
S1130400882381F0662009F470C080949094A094AD
S1130410B09482209320A420B52088829982AA8255
S1130420BB8263C0C114D104E104F10409F45DC0CA
S1130430662029F040E050E060E071E003C040E055
S113044050E0BA0171107460482959296A297B293E
S113045097018601CE0104960E940C0E0E94C80CDE
S1130460811102C00E94D4040E94431091FD39C03E
S1130470F091A200FF93F87FF093A2006881798144
S11304808A819B8171100DC021E075016401C6222F
S1130490D722E822F922CD28CE28CF2879F420E0EB
S11304A00DC021E075016401C622D722E822F92299
S11304B0C814D904EA04FB0409F020E0222371F0F3
S11304C0662061F080949094A094B0948622972240
S11304D0A822B92288829982AA82BB82FF91F093D2
S11304E0A2001B012C01552402C00E94C80CC201A9
S11304F0B101DF91CF911F910F91FF90EF90DF90A9
S1130500CF90BF90AF909F908F907F906F905F90AF
S11305104F903F902F9008950F931F93F091A20056
S1130520FF93F87FF093A200FC01008111812281E6
S113053033814095509560957095402351236223F3
S113054073234083518362837383FF91F093A200EA
S1130550C901B8011F910F9108954F925F926F9254
S11305607F92AF92BF92CF92DF92EF92FF920F935E
S11305701F93CF93DF93EC016A017B018C01095F28
S11305801F4F0E94DD0BEB85FC8588819981AA8130
S1130590BB81C82AD92AEA2AFB2AC882D982EA82DC
S11305A0FB820E171F0709F442C0C12CD12C76011F
S11305B0A480B58080819181A281B381AC01BD0109
S11305C07727B2FD0FC0488059806A807B8044221F
S11305D055226622772221E045284628472889F4B7
S11305E020E00FC0488059806A807B8044225522D5
S11305F06622772221E0441655066606770609F03E
S113060020E0222371F0B0FF04C0C42AD52AE62AD0
S1130610F72A488159816A817B817260CF010E94E7
S1130620940EEA2DFB2D0E171F0711F603C0C12CE3
S1130630D12C7601C094D094E094F094888199816F
S1130640AA81BB81C822D922EA22FB22C882D9828C
S1130650EA82FB820E94C80C688179818A819B812D
S1130660DF91CF911F910F91FF90EF90DF90CF908A
S1130670BF90AF907F906F905F904F9008950E94CD
S1130680AD0208950F931F9389019A01AB01BC0138
S11306908FE393E00E9435131F910F910895CF9338
S11306A0DF93EC010E94DD0B209144203091452022
S11306B0C9018C0F9D1F883B4BE0940758F4281701
S11306C0390758F4E901CA5BDF4D809344209093C5
S11306D0452005C0C0E0D0E002C0C0E0D0E00E94E8
S11306E0C80CCE01DF91CF9108950895FC010396C3
S11306F0818392834FEF5FEFBA0143835483658311
S11307007683878390878187928710820895FC017E
S1130710128613860895CF93DF939C01FB01DC01BD
S11307201196CD91DC911297C483D5838E819F81DC
S1130730868397838E819F81DC0114966D937C93CD
S113074015976E837F8322873387F90180818F5FBA
S11307508083DF91CF9108950F931F93CF93DF93FD
S1130760EB01088119812A813B810F3F4FEF140768
S11307702407340721F4FC01A185B28511C0DC01F2
S1130780139601C0DF011496ED91FC9115974081F9
S1130790518162817381041715072607370790F783
S11307A01496ED91FC911597EC83FD83C683D78352
S11307B0AE83BF831496CD93DC9315978A879B876A
S11307C0FC0120812F5F2083DF91CF911F910F9136
S11307D00895CF93DF93FC01A285B385C481D581AD
S11307E0868197818E839F83C681D78184819581F9
S11307F08C839D8311968D919C911297E817F9072C
S113080031F48681978111968D939C931297128669
S113081013868C9181508C938C91DF91CF910895A4
S1130820E0EAF0E082819281987F92830895CF92EA
S1130830DF92EF92FF9231E1FC013083319722E2A3
S113084020833197A3E3A0836B01E12CF12C319732
S113085060833197D0823197E082319761E360837E
S1130860319760E86083319767E86083319710823D
S113087031971082319762E06083319763E060833F
S1130880319764E06083319765E06083319766E077
S11308906083319767E06083319768E060833197C4
S11308A069E06083319760E16083319730833197E9
S11308B032E13083319733E13083319734E130834F
S11308C0319735E13083319736E13083319737E121
S11308D03083319738E13083319739E13083319770
S11308E030E23083319731E230833197208331977E
S11308F023E220836A01319740833197D082319774
S113090026E22083319727E22083319728E220834F
S1130910319729E22083319720E320838897FF9041
S1130920EF90DF90CF90089583EF91E080932608B5
S11309309093270865E080E098E00E94960161E0CA
S113094080E098E00E94A201A0916C2CB0916D2CE3
S11309500D900DBE0D900EBEEF91DF91CF91BF9122
S1130960AF919F918F917F916F915F914F913F9143
S11309702F911F910F91FF90EF90DF90CF90BF9038
S1130980AF909F908F907F906F905F904F903F902B
S11309902F901F900F90FF91F093A200FF91FFBF43
S11309A0FF91089581E00895FF93FFB7FF93F091BD
S11309B0A200FF93F87FF093A2000F921F921124DC
S11309C02F923F924F925F926F927F928F929F925B
S11309D0AF92BF92CF92DF92EF92FF920F931F9349
S11309E02F933F934F935F936F937F938F939F9333
S11309F0AF93BF93CF93DF93EF93A0916C2CB091FF
S1130A006D2C0DB60D920EB60D920E94660DA0913E
S1130A106C2CB0916D2C0D900DBE0D900EBEEF910F
S1130A20DF91CF91BF91AF919F918F917F916F9102
S1130A305F914F913F912F911F910F91FF90EF90F4
S1130A40DF90CF90BF90AF909F908F907F906F90EA
S1130A505F904F903F902F901F900F90FF91F093D5
S1130A60A200FF91FFBFFF910895CF939091BC2CFA
S1130A70892B8093BC2C9091A000913041F09091EF
S1130A80A000923021F09091A000943059F4882372
S1130A9049F00E941004C82F1092BC2C0E94660DCD
S1130AA0C093A200CF910895FF93FFB7FF93F091F5
S1130AB0A200FF93F87FF093A2000F921F921124DB
S1130AC02F923F924F925F926F927F928F929F925A
S1130AD0AF92BF92CF92DF92EF92FF920F931F9348
S1130AE02F933F934F935F936F937F938F939F9332
S1130AF0AF93BF93CF93DF93EF93A0916C2CB091FE
S1130B006D2C0DB60D920EB60D920E941004C82FD6
S1130B100E94F50BC093A20081E00E943505A091CC
S1130B206C2CB0916D2C0D900DBE0D900EBEEF91FE
S1130B30DF91CF91BF91AF919F918F917F916F91F1
S1130B405F914F913F912F911F910F91FF90EF90E3
S1130B50DF90CF90BF90AF909F908F907F906F90D9
S1130B605F904F903F902F901F900F90FF91F093C4
S1130B70A200FF91FFBFFF911895F091A200FF938F
S1130B80F87FF093A200FC01968DFF91F093A200F0
S1130B9081E0911180E00895DC01F091A200FF93BF
S1130BA0F87FF093A2005E969C915E97FF91F0937C
S1130BB0A20081E05F962C91291380E008950F93A1
S1130BC01F93CF93DF93EC01042F1E8D48A1411195
S1130BD00CC088819981892B09F042C08A819B814C
S1130BE00E94B70F1A821B8242C0011117C050E045
S1130BF08C819D810E94761E28A18C819D81820F0B
S1130C00911D8C839D832A813B818217930750F128
S1130C10888199818C839D8380E029C050E08E81F6
S1130C209F810E94761E88A190E0919581959109FB
S1130C302E813F81280F391F2E833F83488159819C
S1130C402417350730F42A813B81820F931F8E834A
S1130C509F83023049F4112349F0115080E007C00A
S1130C6080E005C080E003C080E001C080E01F5F39
S1130C701E8FDF91CF911F910F910895FC0140A128
S1130C804423A9F050E026813781240F351F2683A1
S1130C903783828193812817390720F080819181DD
S1130CA086839783CB01668177810E94761E08959F
S1130CB0EF92FF920F931F93CF938C01F091A200B8
S1130CC0FF93F87FF093A200FC01C2A11C16ACF4C0
S1130CD08389811106C011C0F8018389811105C07F
S1130CE00CC07801F3E1EF0EF11CC7010E94520E13
S1130CF081110E94370FC15079F78FEFF80182A359
S1130D00FF91F093A200F091A200FF93F87FF0937B
S1130D10A200F801C1A11C16ACF48085811106C0A3
S1130D2011C0F8018085811105C00CC07801F8E07C
S1130D30EF0EF11CC7010E94520E81110E94370F61
S1130D40C15079F78FEFF80181A3FF91F093A200CE
S1130D50CF911F910F91FF90EF900895CF93DF9360
S1130D60EC01F091A200FF93F87FF093A200488178
S1130D70598128A130E07F8D729FC001739F900D2F
S1130D801124FA01E80FF91FEA83FB831E8E4C83BA
S1130D905D83821B930B840F951F8E839F838FEF3C
S1130DA089A38AA361110CC08885882389F0CE01A8
S1130DB008960E94520E882359F00E94D40408C059
S1130DC0CE0108960E947603CE0143960E947603D4
S1130DD0FF91F093A20081E0DF91CF910895FF92FB
S1130DE00F931F93CF93DF93082F162FF42E6623B0
S1130DF0C9F0869FC001112485960E944F03EC011F
S1130E00009749F416C00F8F18A361E0CE010E9429
S1130E10AE06FCA20EC0859688839983F4CFC8835E
S1130E20D983F1CF85E290E00E944F03EC01892B36
S1130E30B1F7CE01DF91CF911F910F91FF900895EB
S1130E40AF92BF92CF92DF92EF92FF920F931F93D4
S1130E50CF93DF93CDB7DEB72997CDBFDEBF7C013B
S1130E605B012E833F834887598710E06C0188E03B
S1130E70C80ED11CF091A200FF93F87FF093A2005A
S1130E80F701968D878D981710F00230D1F4402F1A
S1130E90B501C7010E94DF05F7019389992349F041
S1130EA0C70143960E94520E882331F00E94D40455
S1130EB003C081110E94D404FF91F093A20081E049
S1130EC057C08E819F81A885B985892B8A2B8B2B4E
S1130ED029F4FF91F093A20080E04AC0111105C0EB
S1130EE0CE0101960E94C80E11E0FF91F093A2007A
S1130EF00E94DD0BF091A200FF93F87FF093A20013
S1130F00F70181A18F3F09F411A2F70182A18F3F5C
S1130F1009F412A2FF91F093A200BE016A5F7F4F11
S1130F20CE0101960E94D90E81111CC0C7010E94F6
S1130F30CC05882389F04E815F8168857985C60157
S1130F400E94F40DC7010E9458060E94C80C81112A
S1130F5091CF0E94D4048ECFC7010E9458060E94EC
S1130F60C80C88CFC7010E9458060E94C80C80E0B4
S1130F702996CDBFDEBFDF91CF911F910F91FF90D6
S1130F80EF90DF90CF90BF90AF9008950F93CF93E1
S1130F90DF93482F60E081E00E94EF06EC010097A8
S1130FA069F01A821B82188219821E8200E020E0F6
S1130FB030E0A90160E070E00E942007CE01DF91DB
S1130FC0CF910F910895AF92BF92CF92DF92FF928B
S1130FD00F931F93CF93DF93EC016B015A01022F00
S1130FE00E941004F82E9E8D8F8D981710F00230F9
S1130FF0E1F41AA1402FB601CE010E94DF051F3F84
S113100081F48B89882399F0CE0143960E94520E75
S1131010882379F0A114B10471F081E0F501808393
S11310200BC01F5F1AA381E007C080E005C081E008
S113103003C081E001C081E0F092A200DF91CF9172
S11310401F910F91FF90DF90CF90BF90AF900895C4
S1131050AF92BF92CF92DF92EF92FF920F931F93C2
S1131060CF93DF93CDB7DEB72997CDBFDEBF8C0119
S11310705B012E833F8348875987E12C6C0183E110
S1131080C80ED11CF091A200FF93F87FF093A20048
S1131090F801F68CFF20B1F0B501C8010E943E06AC
S11310A0FA94F801F68E8085882339F0C8010896F1
S11310B00E94520E81110E94D404FF91F093A20069
S11310C081E05EC08E819F81A885B985892B8A2B9A
S11310D08B2B29F4FF91F093A20080E051C0E11022
S11310E006C0CE0101960E94C80EEE24E394FF913F
S11310F0F093A2000E94DD0BF091A200FF93F87F11
S1131100F093A200F80181A18F3F09F411A2F80124
S113111082A18F3F09F412A2FF91F093A200BE01B5
S11311206A5F7F4FCE0101960E94D90E81111CC0C7
S1131130C8010E94BD05882389F04E815F816885BE
S11311407985C6010E94F40DC8010E9458060E94C8
S1131150C80C811197CF0E94D40494CFC8010E9477
S113116058060E94C80C8ECFC8010E9458060E94DF
S1131170C80CC8010E94BD05882309F483CF80E010
S11311802996CDBFDEBFDF91CF911F910F91FF90C4
S1131190EF90DF90CF90BF90AF900895CF92DF9201
S11311A0EF92FF920F931F93CF93DF93CDB7DEB7E8
S11311B02997CDBFDEBF8C014E835F836887798713
S11311C0C12CD12C7C0183E1E80EF11CF091A2002A
S11311D0FF93F87FF093A200D8015E968C915E97FE
S11311E08823F1F081505E968C935E978D919C914B
S11311F0892B29F40E946B10F80182839383D80110
S113120018968C91882339F0C80108960E94520ED2
S113121081110E94D404FF91F093A20081E097C051
S11312208E819F81A885B985892B8A2B8B2B29F4E4
S1131230FF91F093A20080E08AC0D11006C0CE01D5
S113124001960E94C80EDD24D394FF91F093A2006E
S11312500E94DD0BF091A200FF93F87FF093A200AF
S1131260F80181A18F3F09F411A2D80192968C91C3
S113127092978F3F11F492961C92FF91F093A200E3
S1131280BE016A5F7F4FCE0101960E94D90E811183
S113129032C0C8010E94BD05882339F1F80180815C
S11312A09181892B89F4F091A200FF93F87FF09348
S11312B0A200D80112968D919C9113970E94490F18
S11312C0C82EFF91F093A2004E815F8168857985D5
S11312D0C7010E94F40DC8010E9458060E94C80C60
S11312E0811174CF0E94D40471CFC8010E945806A2
S11312F00E94C80C6BCFC8010E9458060E94C80CFB
S1131300C8010E94BD05882309F460CFCC20F1F008
S1131310F091A200FF93F87FF093A200F801838973
S1131320882339F0028CF38DE02D808164E0681B02
S113133001C060E0D80112968D919C9113970E9490
S1131340F70FFF91F093A20080E001C080E029969E
S1131350CDBFDEBFDF91CF911F910F91FF90EF9032
S1131360DF90CF900895F091A200FF93F87FF0935F
S1131370A200FC01868DFF91F093A2000895CF9303
S1131380DF93EC01F091A200FF93F87FF093A200A9
S113139089A18F3F09F419A28AA18F3F09F41AA2E7
S11313A0FF91F093A2008E8D811104C0CE0143966B
S11313B00E94310ECE010E945806DF91CF9108950C
S11313C0E091282CF091292C808181110CC08FEFA1
S11313D09FEFDC018093012C9093022CA093032CAB
S11313E0B093042C0895E091282CF091292C0780C7
S11313F0F085E02D0084F185E02D82819381A48124
S1131400B5818093012C9093022CA093032CB0936C
S1131410042C08958F929F92AF92BF92CF92DF9245
S1131420EF92FF92CF936B017C01C42F80900B2C21
S113143090900C2CA0900D2CB0900E2C80916C2CC4
S113144090916D2C02960E94E9038FEFC816D8067E
S1131450E806F80669F4CC2359F060916C2C70917D
S11314606D2C6E5F7F4F80E19CE20E948B033FC036
S1131470C80CD91CEA1CFB1CE0916C2CF0916D2C5F
S1131480C282D382E482F582C814D904EA04FB043C
S113149068F460916C2C70916D2C8091262C909145
S11314A0272C6E5F7F4F0E94AC0321C060916C2C8F
S11314B070916D2C8091282C9091292C6E5F7F4F18
S11314C00E94AC038091012C9091022CA091032CDA
S11314D0B091042CC816D906EA06FB0640F4C09263
S11314E0012CD092022CE092032CF092042CCF9188
S11314F0FF90EF90DF90CF90BF90AF909F908F9030
S11315000895C0E4DCE28881823010F00E94D404A3
S11315100E948615F8CF4F925F926F927F928F92BE
S11315209F92AF92BF92CF92DF92EF92FF920F936E
S1131530CF93DF934C016B015A012901CA010E9428
S11315404F033C01892B09F4ECC08EE290E00E9429
S11315504F03EC01892BB1F06B8E7C8EA50165EAFB
S113156070E0C3010E947F1E21E0A21AB1088B8D96
S11315709C8DA80EB91ED6018C918D8F8C918111F2
S113158005C018C0C3010E947503CBC0AE01425E02
S11315905F4FF6013196B8E0CB0ED11CCF012191FB
S11315A0DA012D93AD01DC018C91882319F0EC153F
S11315B0FD05A1F71CA2043008F003E00A8F0FA375
S11315C018A66E01B2E0CB0ED11CC6010E9487039F
S11315D0CE010E960E948703CA87DB8784E090E0E1
S11315E0A0E0B0E0801B9109A109B1098E879F8713
S11315F0A88BB98BCE8BDF8B19A61AA61BA61CA6AB
S11316001DA6A201B401C5010E9417048883998311
S1131610E114F10419F0F701C083D183F091A20021
S1131620FF93F87FF093A20080910F2C8F5F80933B
S11316300F2C80916C2C90916D2C892BA9F5C09363
S11316406C2CD0936D2C80910F2C8130E9F580E4C3
S11316509CE20E9476038BE49CE20E94760386E57A
S11316609CE20E94760381E69CE20E94760385E375
S11316709CE20E9476038AE29CE20E9476038BE15C
S11316809CE20E94760380E19CE20E94760385E35B
S11316909CE28093282C9093292C8AE29CE28093EC
S11316A0262C9093272C10C08091092C81110CC0FA
S11316B0E0916C2CF0916D2C928D8A8D891720F01D
S11316C0C0936C2CD0936D2C8091052C8F5F8093EC
S11316D0052C8DA38A8D90910A2C981710F4809371
S11316E00A2CFBE08F9FC0011124B601805C934D4E
S11316F00E948B03FF91F093A2008091092C882310
S113170061F0E0916C2CF0916D2C928D8A8D98177C
S113171030F40E94D40481E005C081E003C081E07C
S113172001C08FEFDF91CF910F91FF90EF90DF9089
S1131730CF90BF90AF909F908F907F906F905F906D
S11317404F900895EF92FF920F930F2EFFEFEF2E1D
S1131750FBE2FF2EF02D00E020E030E048EC50E00A
S113176060E070E281E89AE00E948B0A813009F51A
S11317700E94F3108130E9F4E0EAF0E08281887F8E
S113178082838FEF9FEFDC018093012C9093022CD6
S1131790A093032CB093042C81E08093092C109225
S11317A00B2C10920C2C10920D2C10920E2C0E94CB
S11317B094040F91FF90EF9008958091FE2B8F5F1A
S11317C08093FE2B0895F091A200FF93F87FF0938D
S11317D0A20060910B2C70910C2C80910D2C909197
S11317E00E2CFF91F093A2000895AF92BF92CF9276
S11317F0DF92EF92FF920F931F93CF93DF93809129
S1131800FE2B8111ADC0C0900B2CD0900C2CE0901D
S11318100D2CF0900E2C8FEFC81AD80AE80AF80A9B
S1131820C0920B2CD0920C2CE0920D2CF0920E2C2A
S1131830C114D104E104F104B9F48091282C9091ED
S1131840292C2091262C3091272C2093282C30935E
S1131850292C8093262C9093272C8091062C8F5F23
S11318608093062C0E94E0098091012C9091022C17
S1131870A091032CB091042CC816D906EA06FB06E5
S113188010F4B12C5CC0B12C0F2EFBE0AF2EF02D68
S1131890E091282CF091292C808181110CC08FEFCC
S11318A09FEFDC018093012C9093022CA093032CD6
S11318B0B093042C44C0E091282CF091292C07808B
S11318C0F085E02DC085D1858A819B81AC81BD8165
S11318D0C816D906EA06FB0648F48093012C9093B7
S11318E0022CA093032CB093042C29C08E010E5F0C
S11318F01F4FC8010E94E903888D998D892B21F01F
S1131900CE010E960E94E9038A8D90910A2C9817B5
S113191010F480930A2CA89EC0011124B801805CA5
S1131920934D0E948B03E0916C2CF0916D2C9A8D59
S1131930828D981708F4ACCFBB24B394A9CFE0915F
S11319406C2CF0916D2CE28D8BE0E89FF00111245A
S1131950E05CF34D8081823048F0BB24B39406C030
S11319608091082C8F5F8093082CB12C8091072CD8
S1131970882311F0BB24B3948B2DDF91CF911F9159
S11319800F91FF90EF90DF90CF90BF90AF900895AC
S1131990CF92DF92EF92FF920F931F93CF93DF9337
S11319A0F091A200FF93F87FF093A2008091FE2BA8
S11319B081508093FE2B8091FE2B81115CC080911D
S11319C00F2C81112CC05AC0D7011796ED91FC91B0
S11319D01897C085D185CE010E960E94E9038E0129
S11319E00E5F1F4FC8010E94E9038A8D90910A2C53
S11319F0981710F480930A2CD89EC0011124B801C2
S1131A00805C934D0E948B03E0916C2CF0916D2CC3
S1131A109A8D828D981788F0C092072C0EC0C0E072
S1131A20D0E00F2EFBE1EF2EFCE2FF2EF02D0F2E67
S1131A30FBE0DF2EF02DCC24C394F70180818111CB
S1131A40C3CFCD2B11F00E94E009C091082CCC2308
S1131A5051F0D1E00E94F50B8111D093072CC150B5
S1131A60C9F71092082C8091072C882331F00E942A
S1131A70D40481E003C080E001C080E0FF91F093D2
S1131A80A200DF91CF911F910F91FF90EF90DF9013
S1131A90CF900895CF92DF92EF92FF926B017C0179
S1131AA0672B682B692B59F00E94DD0B40E0C701BE
S1131AB0B6010E940A0A0E94C80C811102C00E9449
S1131AC0D404FF90EF90DF90CF9008958091FE2B87
S1131AD0882321F081E08093072C08951092072C2D
S1131AE0E0916C2CF0916D2C038CF48DE02D8081B1
S1131AF09181A281B381853A954AA54AB54AD9F420
S1131B0084819581A681B781853A954AA54AB54ACB
S1131B1091F480859185A285B385853A954AA54A35
S1131B20B54A49F484859585A685B785853A954A4D
S1131B30A54AB54A61F060916C2C70916D2C80912E
S1131B406C2C90916D2C635E7F4F0E94AF0180914D
S1131B500A2C282F30E09BE0899FF0011124E05CDF
S1131B60F34D908191110EC04BE08150282F30E04D
S1131B70429FF001439FF00D1124E05CF34D9081EE
S1131B80992399F39BE0929FA001939F500D1124F8
S1131B90DA01A05CB34D1196ED91FC91129704808B
S1131BA0F581E02D1196ED93FC9312974D5B534D07
S1131BB0E417F50729F444815581FD0141835283DB
S1131BC09BE0929FF001939FF00D1124E05CF34D94
S1131BD00180F281E02D2085318520936C2C309397
S1131BE06D2C80930A2C0895CF92DF92EF92FF928E
S1131BF06A017B0160916C2C70916D2C625F7F4F48
S1131C000E94AC0341E0C701B6010E940A0AFF909A
S1131C10EF90DF90CF900895CF92DF92EF92FF92F2
S1131C200F931F9368017901E0916C2CF0916D2C56
S1131C30706846875787608B718B60916C2C7091AC
S1131C406D2C625F7F4F0E948B0341E0C701B60198
S1131C500E940A0A1F910F91FF90EF90DF90CF909E
S1131C600895CF92DF92EF92FF92CF936A017B01A6
S1131C70C22F60916C2C70916D2C625F7F4F0E941B
S1131C808B03CC2321F0CC24CA94DC2C76014C2F7A
S1131C90C701B6010E940A0ACF91FF90EF90DF902E
S1131CA0CF9008950F931F93CF93DF93DC01179682
S1131CB0ED91FC911897C085D1858E01025F1F4F6D
S1131CC0C8010E94E9038091FE2B811116C00C50BB
S1131CD01109C8010E94E9038A8D90910A2C981772
S1131CE010F480930A2CBBE08B9FC0011124B8012F
S1131CF0805C934D0E948B0305C0B8018BE19CE28C
S1131D000E948B03E0916C2CF0916D2C9A8D828D46
S1131D10891720F481E08093072C01C080E0DF91D3
S1131D20CF911F910F9108950F931F93CF93DF933A
S1131D307068FC014083518362837383C085D185BD
S1131D400E94E9038E010E5F1F4FC8010E94E90340
S1131D508A8D90910A2C981710F480930A2CFBE03A
S1131D608F9FC0011124B801805C934D0E948B03A6
S1131D70E0916C2CF0916D2C9A8D828D891718F45A
S1131D8081E08093072CDF91CF911F910F910895EB
S1131D902091062CFC01208340910B2C50910C2C9B
S1131DA060910D2C70910E2C418352836383748354
S1131DB00895CF92DF92EF92FF920F931F93CF93E8
S1131DC0DF93DB01F091A200FF93F87FF093A20070
S1131DD040910B2C50910C2C60910D2C70910E2C79
S1131DE00D911D912D913C9113970F3FCFEF1C073F
S1131DF02C073C0769F1FC01C180D280E380F480A8
S1131E00E091062CEC01F881FE1729F04C155D05D4
S1131E106E057F05F8F44C195D096E097F094017BA
S1131E2051076207730768F4FD01041B150B260BA9
S1131E30370B00831183228333830E94C80E80E012
S1131E400AC01D921D921D921C92139781E003C03B
S1131E5080E001C081E0FF91F093A200DF91CF9177
S1131E601F910F91FF90EF90DF90CF90089581E044
S1131E708093072C08958091092C882331F0809158
S1131E80FE2B882321F080E0089581E0089582E00C
S1131E9008950F931F93CF93DF93FC01892B09F4CB
S1131EA060C0828DA0916C2CB0916D2C5A969C913F
S1131EB0891708F04AC04685578560897189772358
S1131EC094F0A0916C2CB0916D2C5A969C9144E0A6
S1131ED050E060E070E0491B5109610971094687CF
S1131EE05787608B718B2BE0829FC0011124805C2B
S1131EF0934D2485358528173907F1F48F01EF01B7
S1131F002296CE010E94E903E0916C2CF0916D2C95
S1131F10828DF801828F90910A2C981710F4809387
S1131F200A2CFBE08F9FC0011124BE01805C934DFD
S1131F300E948B0381E016C0A0916C2CB0916D2C93
S1131F405A968C91828F81E00DC0A0916C2CB09137
S1131F506D2C81E027A15A969C91291718F080E0F6
S1131F6001C080E0DF91CF911F910F9108950F93ED
S1131F701F93CF93DF93FC01892B79F180A58150C6
S1131F8080A7228D97A1291751F181112AC0EF0151
S1131F908F010E5F1F4FC8010E94E9038FA18A8F32
S1131FA044E050E060E070E0481B510961097109A8
S1131FB04E875F87688B798B90910A2C981710F461
S1131FC080930A2C2BE0829FC0011124B801805C0D
S1131FD0934D0E948B0381E005C080E003C080E044
S1131FE001C080E0DF91CF911F910F9108950F936D
S1131FF01F93CF93DF93FC01892B09F43FC087A182
S1132000861708F4862F928D9817C1F120A52130E8
S1132010A9F5828F4685578560897189772364F095
S113202044E050E060E070E0481B51096109710927
S113203046875787608B718B2BE0929FC0011124D8
S1132040805C934D2485358528173907B9F4EF0151
S11320508F010E5F1F4FC8010E94E9038A8D909182
S11320600A2C981710F480930A2C2BE0829FC0014D
S11320701124B801805C934D0E948B03DF91CF91B2
S11320801F910F910895CF92DF92EF92FF92E0910A
S11320906C2CF0916D2C6685778580899189E0910F
S11320A06C2CF0916D2CA0916C2CB0916D2C5A96E7
S11320B02C91C12CD12C76016894C2F8C21AD10893
S11320C0E108F108C686D786E08AF18AFF90EF908E
S11320D0DF90CF90089580916C2C90916D2C892B7A
S11320E039F0E0916C2CF0916D2C80A58F5F80A766
S11320F080916C2C90916D2C0895CF92DF92EF9289
S1132100FF920F931F93FC0142835383648375836F
S1132110828793870417150726073707C0F00C1921
S11321201D092E093F0986859785A089B18908175D
S113213019072A073B0700F5BF016E5F7F4F8091A7
S1132140762C9091772C0E94AC0380E018C00C157B
S11321501D052E053F0528F44C155D056E057F050C
S113216068F4BF016E5F7F4F8091782C9091792C39
S11321700E94AC0380E003C081E001C081E01F91B4
S11321800F91FF90EF90DF90CF900895F091A2000F
S1132190FF93F87FF093A2008091742C9091752C9A
S11321A0892BE9F485E89CE20E9476038AE79CE2A5
S11321B00E94760385E89CE28093782C9093792C96
S11321C08AE79CE28093762C9093772C40E069E038
S11321D085E00E94EF068093742C9093752CFF91F8
S11321E0F093A2000895EF92FF920F930E94C610FD
S11321F08091742C9091752C892B91F00F2EF2E71D
S1132200EF2EFCE2FF2EF02D03E020E030E048EC5E
S113221050E065E070E286E092E10E948B0A01C022
S113222080E00F91FF90EF9008958F929F92AF926C
S1132230BF92CF92DF92EF92FF920F931F93CF93AF
S1132240DF93CDB7DEB72997CDBFDEBFE091742C05
S1132250F091752C309789F169832A833B834C83F1
S11322605D838E839F836630FCF40E943B0F823033
S113227069F400E0A7019601BE016F5F7F4F809172
S1132280742C9091752C0E94200718C000E020E067
S113229030E0A901BE016F5F7F4F8091742C909153
S11322A0752C0E9420070AC020E0A801BE016F5FC0
S11322B07F4FCF010E94E30701C080E02996CDBF84
S11322C0DEBFDF91CF911F910F91FF90EF90DF90D0
S11322D0CF90BF90AF909F908F9008952F923F9290
S11322E04F925F926F927F928F929F92AF92BF9222
S11322F0CF92DF92EF92FF920F931F93CF93DF93CE
S11323001C010E94E30B2B013C0180916E2C9091E7
S11323106F2CA091702CB091712C481659066A0646
S11323207B0608F054C03CC00780F085E02D808017
S11323309180A280B380C085D1858E010E5F1F4F2E
S1132340C8010E94E903ED89FE89CE0119958A89A5
S1132350813031F58E859F85A889B989880D991DAD
S1132360AA1DBB1D88169906AA06BB0670F48A83AB
S11323709B83AC83BD83CA87DB87B8018091782CAB
S11323809091792C0E94AC030BC0C12CD12C760106
S113239000E010E0A501940160E0CE010E94151157
S11323A0E091782CF091792C80818111BDCF8091BE
S11323B0762C9091772C8093782C9093792CE093C1
S11323C0762CF093772C81E0F101808302C0F10137
S11323D0108240926E2C50926F2C6092702C7092EE
S11323E0712CC301B201DF91CF911F910F91FF9026
S11323F0EF90DF90CF90BF90AF909F908F907F90A1
S11324006F905F904F903F902F900895CF93DF93FC
S1132410CDB7DEB72E97CDBFDEBFCE0101961C012E
S1132420A82EB32CE091782CF091792C808188230C
S113243009F403C10780F085E02D4080518062805B
S113244073800E94DD0BC1010E946E116B877C8733
S11324508D879E87898181115EC08B859C85AD8522
S1132460BE8584159505A605B705E8F10E94C80C3C
S1132470E091782CF091792C0780F085E02D808410
S11324809184C40102960E94E903D40152968C916E
S11324905297813001F51E964D915D916D917C911D
S11324A05197440D551D661D771D730162010B85FF
S11324B01C852D853E85C4010E947D10882359F01A
S11324C0C12CD12C760100E010E0A301920160E060
S11324D0C4010E941511D4015596ED91FC915697B3
S11324E0C40119959CC020E0B301A2018B859C8591
S11324F0AD85BE85481B590B6A0B7B0B8091742CF0
S11325009091752C0E94BF090E94C80C811187C04C
S11325100E94D40484C00E94C80C81C0898188238D
S11325206CF44E815F8168857985EA81FB818C81B9
S11325309D811995898188230CF471C08E809F80B8
S1132540D4011C968D919C911D97892B21F0C40177
S113255002960E94E903CE010A960E946E118B0135
S11325609C018981082E000C990BAA0BBB0B8A30A5
S1132570910508F054C0FC018827E250FF4F8F4FAB
S11325800C946E1ECA80DB80EC80FD80F4014685CD
S11325905785608971894C0D5D1D6E1D7F1DC401B9
S11325A00E947D108823D9F1D4015596ED91FC91B8
S11325B05697C4011995F4018289813081F54A81C5
S11325C05B816C817D8186859785A089B1899A011B
S11325D0AB01280F391F4A1F5B1FC12CD12C760178
S11325E000E010E060E0C4010E94151118C04A81A7
S11325F05B816C817D81D4011E964D935D936D93B7
S11326007C935197400F511F621F731F680179011A
S1132610C4010E947D1003C0C4010E94750320E020
S113262030E0A9016A2D7B2D8091742C9091752C3A
S11326300E942808811172CFF5CE0E94DD0BC101E2
S11326400E946E116B877C878D879E87898181119B
S113265062CFE091762CF091772C808121E081117A
S113266020E0412C512C32013FCF0F931F93CF9385
S1132670DF93CDB7DEB72997CDBFDEBFEEEFE98399
S11326808A839B836C837D832E833F83488759870A
S113269020E0A801BE016F5F7F4F8091742C909160
S11326A0752C0E94E3072996CDBFDEBFDF91CF9141
S11326B01F910F910895E0E5F0E0808181608083AF
S11326C0818180FFFDCF80E00E9481018EE10E9424
S11326D0710160E080E00E947B0143E060E080E4FF
S11326E00E946201E0E5F0E080818860808381815E
S11326F083FFFDCF64E080EC0E946C01E0E5F0E034
S113270080818061808360E080E00E947B01E0E55D
S1132710F0E0818184FFFDCF84E00E94810187E0A5
S11327200E9471010895CF93DF9300D01F92CDB71B
S1132730DEB7412C512C3201812C912C5401C12C37
S1132740D12C760119821A821B821C820F2EFDE085
S11327502F2EF0E23F2EF02D11E044E650E060E031
S113276070E08091BD2C9091BE2C0E94CE088823ED
S113277009F45AC04FEF5FEFBA018091BF2C9091DA
S1132780C02C0E94CE08882309F44EC08091902C5E
S11327909091912CA091922CB091932C8230910520
S11327A0A105B105E1F028F40197A105B10559F09F
S11327B027C083309105A105B105B9F00497A1059F
S11327C0B105C9F01DC089819A81AB81BC81019694
S11327D0A11DB11D89839A83AB83BC8311C09FEF74
S11327E0C91AD90AE90AF90A0BC0AFEF8A1A9A0A78
S11327F0AA0ABA0A05C0BFEF4B1A5B0A6B0A7B0A26
S11328001092902C1092912C1092922C1092932C46
S113281000E020E030E0A90160E070E08091BF2C8E
S11328209091C02C0E9420072C812F938B818F9331
S11328309A819F93A981AF933F922F921F921F92E7
S11328401F921F920E946718FF92EF92DF92CF921D
S113285084E190E29F938F931F921F921F921F9384
S11328600E946718BF92AF929F928F928BE190E281
S11328709F938F931F921F921F92B2E0BF930E9467
S113288067187F926F925F924F9282E290E29F93D9
S11328908F931F921F921F92B3E0BF930E946718F9
S11328A0CDBFDEBF64E670E080E090E00E944A0D98
S11328B054CF80E18093A206C0EAD6E0C12CD12C8B
S11328C07601C394888584FD37C04AE050E060E017
S11328D070E08091BF2C9091C02C0E94CE08882378
S11328E059F1888584FD09C06AE070E080E090E0D9
S11328F00E944A0D888584FFF7CFC092902CD09215
S1132900912CE092922CF092932C00E020E030E0A5
S1132910A90160E070E08091BD2C9091BE2C0E94D2
S1132920200720E030E0A90160E070E08091BF2C36
S11329309091C02C0E94200762E370E080E090E058
S11329400E944A0DBFCF80E28093A206C0EAD6E07F
S1132950C12CD12C76016894C1F8888585FD37C0D7
S11329604AE050E060E070E08091BF2C9091C02C70
S11329700E94CE08882359F1888585FD09C06AE044
S113298070E080E090E00E944A0D888585FFF7CFD3
S1132990C092902CD092912CE092922CF092932C95
S11329A000E020E030E0A90160E070E08091BD2CFF
S11329B09091BE2C0E94200720E030E0A90160E045
S11329C070E08091BF2C9091C02C0E94200762E39C
S11329D070E080E090E00E944A0DBFCF80E48093D5
S11329E0A206C0EAD6E00F2EF3E0CF2ED12CE12CC4
S11329F0F12CF02D888586FD37C04AE050E060E078
S1132A0070E08091BF2C9091C02C0E94CE08882346
S1132A1059F1888586FD09C06AE070E080E090E0A5
S1132A200E944A0D888586FFF7CFC092902CD092E1
S1132A30912CE092922CF092932C00E020E030E074
S1132A40A90160E070E08091BD2C9091BE2C0E94A1
S1132A50200720E030E0A90160E070E08091BF2C05
S1132A609091C02C0E94200762E370E080E090E027
S1132A700E944A0DBFCF80E88093A206C0EAD6E048
S1132A80C12CD12C76016894C2F888858823BCF1C6
S1132A904AE050E060E070E08091BF2C9091C02C3F
S1132AA00E94CE08882359F1888588234CF06AE077
S1132AB070E080E090E00E944A0D88858823BCF78E
S1132AC0C092902CD092912CE092922CF092932C64
S1132AD000E020E030E0A90160E070E08091BD2CCE
S1132AE09091BE2C0E94200720E030E0A90160E014
S1132AF070E08091BF2C9091C02C0E94200762E36B
S1132B0070E080E090E00E944A0DBFCF0895EF92FC
S1132B10FF920F930E940A1C0E945B130E94E0160E
S1132B2043E060E081E00E94EF068093BD2C909327
S1132B30BE2C81E00E94C6078093BF2C9093C02CCA
S1132B40E12CF12C01E020E030E042ED50E069E2BC
S1132B5070E283E993E10E948B0A20E030E042EDC9
S1132B6050E06FE270E289E594E10E948B0A20E074
S1132B7030E042ED50E06FE270E283EA94E10E94BB
S1132B808B0A20E030E042ED50E06FE270E28EEE1E
S1132B9094E10E948B0A20E030E042ED50E06FE2C5
S1132BA070E28BE395E10E948B0A0E945C180E94FC
S1132BB0A20B80E090E00F91FF90EF9008951F9298
S1132BC00F920FB60F9211240BB60F922F933F93CF
S1132BD04F935F936F937F938F939F93AF93BF9321
S1132BE0EF93FF93CF93DF931F92CDB7DEB7198294
S1132BF09E012F5F3F4F41E050E060E070E0809124
S1132C00C32C9091C42C0E94420360E080E09BE0BE
S1132C100E9496011092060B0F90DF91CF91FF91C5
S1132C20EF91BF91AF919F918F917F916F915F9140
S1132C304F913F912F910F900BBE0F900FBE0F90AD
S1132C401F901895CF92DF92EF92FF920F936B0132
S1132C507C0182E0C816D104E104F10408F44EC0FA
S1132C60E0E0FBE081E0868310A211A260E080E056
S1132C709BE00E949C018EEFC8168FEFD806E104FA
S1132C80F10470F4F694E794D794C794C092260B99
S1132C90D092270B65E080E09BE00E94960119C06A
S1132CA080E4C81682E4D8068FE0E806F10488F4CC
S1132CB0689414F8F694E794D794C7941694D1F7CB
S1132CC0C092260BD092270B67E080E09BE00E9425
S1132CD096010F2EF4EFCF2EDD24D394E12CF12CAA
S1132CE0F02D00E021E041E050E060E070E08091F0
S1132CF0C32C9091C42C0E94C70111C0E0E0FBE0FA
S1132D0081E0868310A211A260E080E09BE00E9433
S1132D109C01C12CD12C76016894C1F8B3CF0F91DA
S1132D20FF90EF90DF90CF9008958295807FE0E050
S1132D30F6E09481282F2F60922394839481892B29
S1132D40848308951F93CF93DF93C0E6D6E014E005
S1132D501D8361E070E080E090E00E9422161E83F3
S1132D60DF91CF911F910895CF93C82F82958F70D3
S1132D700E949516E0E6F6E081E0868382E0868391
S1132D800E94A2168C2F8F700E9495160E94A21684
S1132D90CF910895CF93C82F82958F700E94951676
S1132DA0E0E6F6E081E0858382E086830E94A21655
S1132DB08C2F8F700E9495160E94A216CF910895B1
S1132DC0EF92FF920F93E0E0F6E080E1818380E2EE
S1132DD0818380E4818380E88183A0E6B6E081E09A
S1132DE011968C93119782E011968C93119784E03D
S1132DF011968C93119784818F70848314968C918F
S1132E001497887F14968C9340E066E188E00E94D2
S1132E10EF068093C12C9093C22C0E94B201809340
S1132E20C32C9093C42CE12CF12C01E020E030E081
S1132E304EE551E068E370E28EE797E10E948B0A69
S1132E400F91FF90EF9008958130910579F01CF473
S1132E50892B39F019C08230910569F0039781F00C
S1132E6013C080E8860F0E94B4160EC080EC860F53
S1132E700E94B41609C084E9860F0E94B41604C0E7
S1132E8084ED860F0E94B41667E270E080E090E063
S1132E900E94221608950E94CA166BE270E080E038
S1132EA090E00E94221608950F931F93CF93DF930F
S1132EB0FC01808181110AC011C08991882371F0BD
S1132EC00E944B170C171D07C1F708C08F010E9401
S1132ED04B17E80121960C5E1F4FEFCFDF91CF9186
S1132EE01F910F910895CF93DF93EA010E94241755
S1132EF0CE010E945417DF91CF910895CF93DF93B1
S1132F00CDB7DEB7C656D109CDBFDEBF5E0141E500
S1132F10A40EB11CFE01319620E208C02193E817EB
S1132F20F907E1F7FC01A816B90619F0CF01449698
S1132F30F5CF60E47CE980E090E00E94221683E013
S1132F400E94951668E873E180E090E00E942216E2
S1132F500E94A21660EA70E080E090E00E942216CF
S1132F600E94A21660EA70E080E090E00E942216BF
S1132F700E94A21660EA70E080E090E00E942216AF
S1132F8082E00E9495160E94A21688E20E94B4165E
S1132F9080E10E94B4168CE00E94B41686E00E9480
S1132FA0B41610E26E0151E5C50ED11C0F2EF4E1EA
S1132FB04F2EF02D0F2EF6E18F2E912CF02D5C2C40
S1132FC00D2D68EC70E080E090E00E944A0D40E036
S1132FD050E0BA018091C32C9091C42C0E948C02C1
S1132FE0672B682B692B09F449C042E050E060E08C
S1132FF070E08091C32C9091C42C0E948C02FE013D
S1133000319608C01193E817F907E1F7FC018A1516
S11330109B05A1F1CF014496F5CF2FEF3FEFA90116
S1133020652D702F8091C12C9091C22C0E9428088C
S1133030882321F1F6012181822F90E04497F4F452
S113304082818823D9F0908130E0D901499EA00D76
S1133050B11D112441E050E04C0F5D1FA40FB51FBA
S11330603396A401421B530B9A012C0D3D1D8D93E5
S1133070E217F30719F081918111F9CF8091C12CE6
S11330809091C22C0E94B3098111C7CFCE01019641
S11330907C01612C712CA70160E070E0C3010E94E7
S11330A073179FEF691A790AE4E1EE0EF11CF4E05C
S11330B06F16710481F785CF42E050E060E070E064
S11330C08091C32C9091C42C0E94AD0208952F923C
S11330D03F924F925F926F927F928F929F92AF92A4
S11330E0BF92CF92DF92EF92FF920F931F93CF93F1
S11330F0DF93CDB7DEB76D97CDBFDEBF2BA92B8F86
S1133100AFA9B8AD7E0139E3E30EF11C2CEB3CE230
S1133110E8EAFCE21192E217F307E1F70F2EF4E973
S1133120AF2EFCE2BF2EF02D28EA3CE2F50111920D
S1133130E217F307E1F7812C912C0F2EF8EACF2E3A
S1133140FCE2DF2EF02DFCC2853209F0E8C22D012D
S113315082E0480E511C11968C91853609F4DBC12E
S113316038F48336C1F008F048C0853251F0E7C224
S11331708337F9F0883709F468C0863609F0DFC26E
S11331808CC0F401EC56F34D95E29083AFEF8A1AAC
S11331909A0AD201D5C2F401EC56F34DD7018C91B1
S11331A08083BFEF8B1A9B0AF70132967F01D2010D
S11331B0C7C2A7014E5F5F4FD7018D919C919C01BF
S11331C0B401F401EC56F34D00E010E006C0D9015F
S11331D0FD909D01F1920F5F1F4FDC010D900020C7
S11331E0E9F71197A81BB90B0A171B0780F34D01C8
S11331F0860E971E7A01D201A3C287010E5F1F4F6C
S11332004AE0B601F701808191810E94861E9401F3
S1133210D401AC56B34D48EA5CE280E090E005C0CE
S1133220FA016191AF016D930196F60101900020BE
S1133230E9F73197E85AFC428E179F0788F34F014C
S1133240820E931E7801D2017BC287010E5F1F4F4D
S113325040E1B601D7018D919C910E94861E940194
S1133260F401EC56F34D48EA5CE280E090E005C0DE
S1133270DA016D91AD0161930196D6010D900020A4
S1133280E9F71197A85ABC428A179B0788F34D01A6
S1133290820E931E7801D20153C21701B4E02B0EA3
S11332A0311CD7018D919D910D90BC91A02D8F8BD8
S11332B0988FA98FBA8F20E030E0A901BC01CD011D
S11332C00E949D1C811105C020E3F6012083118218
S11332D004C120E030E0A9016F89788D898D9A8D31
S11332E00E949D1C88239CF4EDE2D601EC938F8907
S11332F0988DA98DBA8DB0588F8B988FA98FBA8F5E
S11333000F2EF9EA6F2EFCE27F2EF02D01C036015C
S113331020E030E040E85FE36F89788D898D9A8DF5
S11333200E94FC1D88230CF444C200E010E020E05D
S113333030E040E251E46F89788D898D9A8D0E9446
S1133340A21C6F8B788F898F9A8F0F5F1F4F20E09D
S113335030E040E85FE30E94FC1D882344F72DEC35
S11333603CEC4CEC5DE36F89788D898D9A8D0E94DD
S11333709D1C88231CF01AC000E010E020E030E01F
S113338040E251E46F89788D898D9A8D0E94011EE7
S11333906F8B788F898F9A8F015011092DEC3CEC3B
S11333A04CEC5DE30E949D1C882344F31016110627
S11333B0ACF57301D301A00FB11FAC8FBD8F3D01DC
S11333C06F89788D898D9A8D20E030E040E251E458
S11333D00E94011E6F8B788F898F9A8F0E94141D13
S11333E020E3260FF70121937F01072E000C880BA1
S11333F0990B0E944C1D9B01AC016F89788D898DBE
S11334009A8D0E94301CE614F704F1F66F8B788FC6
S1133410898F9A8F0115110589F4DBC1C801E0E396
S1133420D301EC937301F2E0EF0EF11C2EE211963E
S11334302C9399236CF000E010E01FC0EC8CFD8C01
S11334403FEFE31AF30AEEE2AC8DBD8DEC9312C0AC
S113345000E010E0FFEFEF1AFF0AF701319720E3D5
S1133460208301970F5F1F4F992324F40430110523
S11334708CF331C00430110574F5370184E090E019
S1133480801B910BE80EF91E87016F89788D898D59
S11334909A8D20E030E040E251E40E94011E6F8BDF
S11334A0788F898F9A8F0E94141D20E3260FD301F1
S11334B02D933D01072E000C880B990B0E944C1D87
S11334C09B01AC016F89788D898D9A8D0E94301C87
S11334D060167106F1F6F70110829401F401EC56BE
S11334E0F34D48EA5CE280E090E005C0DA016D91BA
S11334F0AD0161930196D6010D900020E9F7119773
S1133500A85ABC428A179B0788F34D01820E931E6A
S11335107101D20115C11701B4E02B0E311CD70182
S11335208D919D910D90BC91A02D8F8B988FA98F1B
S1133530BA8F20E030E0A901BC01CD010E949D1C9E
S1133540811105C020E3F60120831182CAC020E066
S113355030E0A9016F89788D898D9A8D0E949D1C18
S113356088239CF4EDE2D601EC938F89988DA98D84
S1133570BA8DB0588F8B988FA98FBA8F0F2EF9EA16
S11335806F2EFCE27F2EF02D01C0360120E030E0EA
S113359040E85FE36F89788D898D9A8D0E94FC1DC8
S11335A08823DCF000E010E020E030E040E251E469
S11335B06F89788D898D9A8D0E94A21C6F8B788F6C
S11335C0898F9A8F0F5F1F4F20E030E040E85FE360
S11335D00E94FC1D882344F702C000E010E02DEC9B
S11335E03CEC4CEC5DE36F89788D898D9A8D0E945B
S11335F09D1C8823C4F420E030E040E251E46F894C
S1133600788D898D9A8D0E94011E6F8B788F898F9A
S11336109A8F015011092DEC3CEC4CEC5DE30E94B7
S11336209D1C882344F320E030E040E251E46F899C
S1133630788D898D9A8D0E94011E6F8B788F898F6A
S11336409A8F0E94141D20E3260FD3012C93072E7A
S1133650000C880B990B0E944C1D9B01AC016F89D7
S1133660788D898D9A8D0E94301CF8013197EC8FEA
S1133670FD8FEEE2D3011196EC9383010E5F1F4F91
S11336807301F6E0EF0EF11C20E030E040E251E47B
S11336900E94011E6F8B788F898F9A8F0E94141D50
S11336A020E3260FD8012D938D01072E000C880BE3
S11336B0990B0E944C1D9B01AC016F89788D898DFB
S11336C09A8D0E94301C0E151F05F1F625E6F301B4
S11336D02683B301695F7F4F4AE08C8D9D8D0E94E4
S11336E0861E9401F401EC56F34D48EA5CE280E056
S11336F090E005C0DA016D91AD0161930196D601A8
S11337000D900020E9F71197A85ABC428A179B072D
S113371088F34D01820E931E7101D20111C08A30CB
S113372029F0F401EC56F34D808304C0F401EC5607
S1133730F34D10821196EFEF8E1A9E0A01C0D2014A
S11337408C91811101CD8DA99EA9880D991D449755
S11337503CF084E190E04C012DA93EA9821A930A21
S1133760FE013396CE014796DF011D92A817B907D3
S1133770E1F73B8D39838DA98A83181419045CF40D
S1133780CE01880D991D0396D5012D915D012193DC
S11337908E179F07C9F700E02FEF3FEFA901BE0185
S11337A06F5F7F4F8091C12C9091C22C0E942007A3
S11337B01BC02DEC3CEC4CEC5DE36F89788D898D5E
S11337C09A8D0E949D1C88230CF4D6CD80E090E055
S11337D026CE20E3EC8DFD8D20837F0132E0E30EC5
S11337E0F11C8EE2818346CE6D96CDBFDEBFDF91A4
S11337F0CF911F910F91FF90EF90DF90CF90BF90EA
S1133800AF909F908F907F906F905F904F903F907C
S11338102F9008958091780085FF05C080E2809301
S1133820780081E008958091780080FF05C081E0F0
S11338308093780082E008958091780084FF05C029
S113384080E18093780083E008958091780081FF7F
S113385005C082E08093780084E0089582E00895B2
S11338605058BB27AA270E94481C0C94C21D0E94D2
S1133870B41D38F00E94BB1D20F039F49F3F19F4A9
S113388026F40C94B11D0EF4E095E7FB0C94AB1DEB
S1133890E92F0E94D31D58F3BA17620773078407F0
S11338A0950720F079F4A6F50C94F51D0EF4E09537
S11338B00B2EBA2FA02D0B01B90190010C01CA01E6
S11338C0A0011124FF27591B99F0593F50F4503E91
S11338D068F11A16F040A22F232F342F4427585F83
S11338E0F3CF469537952795A795F0405395C9F79B
S11338F07EF41F16BA0B620B730B840BBAF0915053
S1133900A1F0FF0FBB1F661F771F881FC2F70EC0F1
S1133910BA0F621F731F841F48F4879577956795C4
S1133920B795F7959E3F08F0B0CF9395880F08F0B0
S11339309927EE0F9795879508950E94871D08F49F
S113394081E008950E94B61C0C94C21D0E94BB1D08
S113395058F00E94B41D40F029F45F3F29F00C9404
S1133960AB1D51110C94F61D0C94B11D0E94D31D76
S113397068F39923B1F3552391F3951B550BBB279A
S1133980AA2762177307840738F09F5F5F4F220FDF
S1133990331F441FAA1FA9F335D00E2E3AF0E0E8D6
S11339A032D091505040E695001CCAF72BD0FE2F20
S11339B029D0660F771F881FBB1F261737074807B4
S11339C0AB07B0E809F0BB0B802DBF01FF2793586C
S11339D05F4F3AF09E3F510578F00C94AB1D0C9468
S11339E0F61D5F3FE4F3983ED4F38695779567958B
S11339F0B795F7959F5FC9F7880F911D96958795A1
S1133A0097F90895E1E0660F771F881FBB1F6217BF
S1133A1073078407BA0720F0621B730B840BBA0B7D
S1133A20EE1F88F7E09508950E941B1D6894B1115C
S1133A300C94F61D08950E94DB1D88F09F5798F0A2
S1133A40B92F9927B751B0F0E1F0660F771F881F9F
S1133A50991F1AF0BA95C9F714C0B13091F00E94B9
S1133A60F51DB1E008950C94F51D672F782F882774
S1133A70B85F39F0B93FCCF3869577956795B395E0
S1133A80D9F73EF490958095709561957F4F8F4F4F
S1133A909F4F0895E89409C097FB3EF49095809554
S1133AA0709561957F4F8F4F9F4F9923A9F0F92F00
S1133AB096E9BB279395F695879577956795B7957E
S1133AC0F111F8CFFAF4BB0F11F460FF1BC06F5F64
S1133AD07F4F8F4F9F4F16C0882311F096E911C076
S1133AE0772321F09EE8872F762F05C0662371F097
S1133AF096E8862F70E060E02AF09A95660F771FAB
S1133B00881FDAF7880F9695879597F90895990F86
S1133B100008550FAA0BE0E8FEEF16161706E80793
S1133B20F907C0F012161306E407F50798F0621BB4
S1133B30730B840B950B39F40A2661F0232B242B89
S1133B40252B21F408950A2609F4A140A6958FEFA8
S1133B50811D811D089597F99F6780E870E060E0FA
S1133B6008959FEF80EC089500240A941616170612
S1133B7018060906089500240A941216130614065A
S1133B8005060895092E0394000C11F4882352F0BD
S1133B90BB0F40F4BF2B11F460FF04C06F5F7F4F75
S1133BA08F4F9F4F089557FD9058440F551F59F05C
S1133BB05F3F71F04795880F97FB991F61F09F3F16
S1133BC079F087950895121613061406551FF2CF3F
S1133BD04695F1DF08C0161617061806991FF1CF8F
S1133BE086957105610508940895E894BB276627B6
S1133BF07727CB0197F908950E94871D08F48FEF6A
S1133C0008950E94141E0C94C21D0E94B41D38F025
S1133C100E94BB1D20F0952311F00C94AB1D0C9455
S1133C20B11D11240C94F61D0E94D31D70F3959FB1
S1133C30C1F3950F50E0551F629FF001729FBB279F
S1133C40F00DB11D639FAA27F00DB11DAA1F649F3B
S1133C506627B00DA11D661F829F2227B00DA11DEE
S1133C60621F739FB00DA11D621F839FA00D611D74
S1133C70221F749F3327A00D611D231F849F600D95
S1133C80211D822F762F6A2F11249F5750409AF0BE
S1133C90F1F088234AF0EE0FFF1FBB1F661F771F4A
S1133CA0881F91505040A9F79E3F510580F00C9415
S1133CB0AB1D0C94F61D5F3FE4F3983ED4F3869558
S1133CC077956795B795F795E7959F5FC1F7FE2BB5
S1133CD0880F911D9695879597F90895EE0FFF1F0C
S1133CE0881F8BBF0790F691E02D1994FB01DC012E
S1133CF002C001900D9241505040D8F70895DC0164
S1133D0001C06D9341505040E0F70895BB274A30FD
S1133D1031F4992322F4BDE2909581959F4F0C9440
S1133D20921EBB27FB015527AA27880F991FAA1F9C
S1133D30A41710F0A41B83955051B9F7A05DAA33C2
S1133D4008F0A95DA193009779F7B111B19311928D
S1133D50CB010C94AB1EDC01FC01672F719177231E
S1133D60E1F7329704C07C916D9370836291AE1732
S10D3D70BF07C8F30895F894FFCFCD
S1133D7A49444C4500546D72205376630042313AEB
S1133D8A2025640042323A2025640042333A202531
S1133D9A640042343A20256400645461736B0062FF
S1133DAA48616E646C65720064697370557064610D
S1073DBA7465000028
S9030000FC
